:100000000C9434000C943E000C943E000C943E0082
:100010000C943E000C943E000C943E000C943E0068
:100020000C943E000C943E000C943E000C943E0058
:100030000C943E000C943E000C943E000C943E0048
:100040000C943E000C943E000C943E000C943E0038
:100050000C943E000C943E000C943E000C943E0028
:100060000C943E000C943E0011241FBECFEFD8E04C
:10007000DEBFCDBF0E9440000C94A3000C94000092
:100080008DEF8AB980E890E015C0282F24602BB945
:100090002FEF31EE44E0215030404040E1F700C006
:1000A00000001BB89C01332314F42F5F3F4FC9019C
:1000B000959587958830910544F780E890E015C0C4
:1000C000282F21602BB92FEF31EE44E02150304032
:1000D0004040E1F700C000001BB89C01332314F43A
:1000E0002F5F3F4FC901959587958830910544F75B
:1000F00080E190E00FC0282F21602BB92FEF31EE67
:1001000044E0215030404040E1F700C000001BB8FF
:10011000880F991F8138910574F380E190E00FC03A
:10012000282F24602BB92FEF31EE44E021503040CE
:100130004040E1F700C000001BB8880F991F8134D0
:0A014000910574F39FCFF894FFCFF0
:00000001FF
