:100000000C9434000C943E000C943E000C943E0082
:100010000C943E000C943E000C943E000C943E0068
:100020000C943E000C943E000C943E000C943E0058
:100030000C943E000C943E000C943E000C943E0048
:100040000C943E000C943E000C943E000C943E0038
:100050000C943E000C943E000C943E000C943E0028
:100060000C943E000C943E0011241FBECFEFD8E04C
:10007000DEBFCDBF0E9440000C946F000C940000C6
:1000800088EF8AB980E890E013C08BB92FEF31EE8A
:1000900044E0215030404040E1F700C000001BB870
:1000A0009C01992314F42F5F3F4FC90195958795C3
:1000B0008830910554F780E190E00DC08BB92FEFA7
:1000C00031EE44E0215030404040E1F700C00000F4
:1000D0001BB8880F991F8134910584F3D3CFF8940E
:0200E000FFCF50
:00000001FF
