:100000000C9434000C943E000C943E000C943E0082
:100010000C943E000C943E000C943E000C943E0068
:100020000C943E000C943E000C943E000C943E0058
:100030000C943E000C943E000C943E000C943E0048
:100040000C943E000C943E000C943E000C943E0038
:100050000C943E000C943E000C943E000C943E0028
:100060000C943E000C943E0011241FBECFEFD8E04C
:10007000DEBFCDBF0E9440000C945C000C940000D9
:1000800088EF8AB980E890E013C08BB92FEF30E792
:1000900042E0215030404040E1F700C000001BB872
:1000A0009C01992314F42F5F3F4FC90195958795C3
:0C00B0008830910554F7E6CFF894FFCF9C
:00000001FF
