S0170000312E355F4C45445F4D6F7665725F432E737265633B
S11300000C9434000C943E000C943E000C943E007E
S11300100C943E000C943E000C943E000C943E0064
S11300200C943E000C943E000C943E000C943E0054
S11300300C943E000C943E000C943E000C943E0044
S11300400C943E000C943E000C943E000C943E0034
S11300500C943E000C943E000C943E000C943E0024
S11300600C943E000C943E0011241FBECFEFD8E048
S1130070DEBFCDBF0E9440000C9452000C940000DF
S11300808FE18AB981E08BB91BB882E08BB91BB8C8
S113009084E08BB91BB888E08BB91BB880E18BB9BD
S10B00A01BB8F0CFF894FFCF68
S9030000FC
