:100000000C9434000C943E000C943E000C943E0082
:100010000C943E000C943E000C943E000C943E0068
:100020000C943E000C943E000C943E000C943E0058
:100030000C943E000C943E000C943E000C943E0048
:100040000C943E000C943E000C943E000C943E0038
:100050000C943E000C943E000C943E000C943E0028
:100060000C943E000C943E0011241FBECFEFD8E04C
:10007000DEBFCDBF0E9440000C94AC000C94000089
:1000800088EF8AB980E88BB92FEF89EF90E0215093
:1000900080409040E1F700C000001BB82FEF89EFCF
:1000A00090E0215080409040E1F700C0000080E4E3
:1000B0008BB92FEF89EF90E0215080409040E1F71D
:1000C00000C000001BB82FEF89EF90E02150804066
:1000D0009040E1F700C0000080E28BB92FEF89EF7C
:1000E00090E0215080409040E1F700C000001BB834
:1000F0002FEF89EF90E0215080409040E1F700C061
:10010000000080E18BB92FEF89EF90E02150804013
:100110009040E1F700C000001BB82FEF89EF90E09E
:10012000215080409040E1F700C0000088E08BB98A
:100130002FEF89EF90E0215080409040E1F700C020
:1001400000001BB82FEF89EF90E0215080409040D5
:0C015000E1F700C0000096CFF894FFCF4C
:00000001FF
