S0170000312E355F4C45445F4D6F7665725F432E737265633B
S11300000C9434000C943E000C943E000C943E007E
S11300100C943E000C943E000C943E000C943E0064
S11300200C943E000C943E000C943E000C943E0054
S11300300C943E000C943E000C943E000C943E0044
S11300400C943E000C943E000C943E000C943E0034
S11300500C943E000C943E000C943E000C943E0024
S11300600C943E000C943E0011241FBECFEFD8E048
S1130070DEBFCDBF0E9440000C94AC000C94000085
S113008088EF8AB980E88BB92FEF81EE94E0215094
S113009080409040E1F700C000001BB82FEF81EED4
S11300A094E0215080409040E1F700C0000080E4DB
S11300B08BB92FEF81EE94E0215080409040E1F71E
S11300C000C000001BB82FEF81EE94E02150804067
S11300D09040E1F700C0000080E28BB92FEF81EE81
S11300E094E0215080409040E1F700C000001BB82C
S11300F02FEF81EE94E0215080409040E1F700C062
S1130100000080E18BB92FEF81EE94E02150804014
S11301109040E1F700C000001BB82FEF81EE94E09F
S1130120215080409040E1F700C0000088E08BB986
S11301302FEF81EE94E0215080409040E1F700C021
S113014000001BB82FEF81EE94E0215080409040D6
S10F0150E1F700C0000096CFF894FFCF48
S9030000FC
